02RETORNO01COBRANCA       00000000000001234567EMPRESA EXEMPLO LTDA          237BRADESCO       250625016000000000001
1021234567800012300000000123456789012100000000000000100123456789000000000000000000000000000000090250625999999999/001 00000000123456789250625000000000100023700000  0000000000001000000000000000
1021234567800012300000000123456789012200000000000000100123456790000000000000000000000000000000090250625999999999/002 00000000123456790250625000000000200023700000  0000000000002000000000000000
9012370000000000000002000000000000030000000000000000000000000000000000000000000000000000000000000000000000000000000000000000000000000000000000000000000000000000000000000000000000000000000000000000000000000000000000000000000000000000000000000000000000000000000000000000000000000000000000000000000000000000000000000000000000000000000000000000000000000000000000000000000000000000000000000000000000000000000000000000000000000000000000000000000000000000000000000000000000000000000000000000000000000000000000000000000000000000000000000000000000000000000000000000000000000000000004 